:020000041000EA
:1000000000B5324B212058609868022188439860DF
:10001000D860186158612E4B002199600221596106
:100020000121F02299502B49196001219960352056
:1000300000F044F80222904214D00621196600F024
:1000400034F8196E01211966002018661A6600F04E
:100050002CF8196E196E196E052000F02FF8012189
:100060000842F9D1002199601B49196000215960AB
:100070001A491B48016001219960EB211966A021F2
:10008000196600F012F800219960164914480160C1
:100090000121996001BC002800D000471248134993
:1000A000086003C880F30888084703B5996A0420EC
:1000B0000142FBD001200142F8D103BD02B5186610
:1000C0001866FFF7F2FF186E186E02BD00000240BE
:1000D000000000180000070000035F00212200005C
:1000E000F4000018222000A00001001008ED00E03C
:1000F00000000000000000000000000074B24E7A12
:1001000000200420F7010010C3010010C5010010F9
:10011000C1010010C1010010C1010010C101001097
:10012000C1010010C1010010C1010010C701001081
:10013000C1010010C1010010C9010010CB01001065
:10014000CD010010CD010010CD010010CD01001037
:10015000CD010010CD010010CD010010CD01001027
:10016000CD010010CD010010CD010010CD01001017
:10017000CD010010CD010010CD010010CD01001007
:10018000CD010010CD010010CD010010CD010010F7
:10019000CD010010CD010010CD010010CD010010E7
:1001A000CD010010CD010010CD010010CD010010D7
:1001B000CD010010CD010010CD010010CD010010C7
:1001C00000BE00BE00BE00BE00BE00BE00F04BF888
:1001D000103800BEF2EB8871185100104851001021
:1001E0003402001090A31AE700202149086006C8D5
:1001F00081F3088810471F48006800282FD10DA4FC
:100200000ECC002902D000F012F8F9E71A491B4A77
:10021000002000E001C19142FCD1194988471949E9
:1002200088471949884700BEFDE701C901C29A42C3
:10023000FBD3704748510010C00000206C0B002019
:10024000F45B00100000042000000420F45B0010A8
:1002500000100420001004200000000070470B482C
:1002600001F098FD0047EFF30580C0B27047000031
:1002700008ED00E0000000D0700B002030190020D5
:100280001D1500105D0300103D16001057560000AC
:1002900006005250ABB360537C4E00100600525023
:1002A000861C03028C4E0010060052505422A29D60
:1002B000944E001005005250DE65F468F45B0010A7
:1002C000F8B5C0460448054B10B5834203D0044B33
:1002D000002B00D0984710BD6C0B00206C0B002049
:1002E0000000000006480749091A8B10C90FC918F9
:1002F00010B5491003D0044B002B00D0984710BD17
:100300006C0B00206C0B00200000000010B5074CA7
:100310002378002B09D1FFF7D5FF054B002B02D026
:10032000044800E000BF0123237010BD780B0020BB
:1003300000000000B04D0010054B10B5002B03D09D
:100340000449054800E000BFFFF7CCFF10BDC046E0
:10035000000000007C0B0020B04D0010F8B501F04B
:1003600067FF0F2000F038F8102000F035F8D02497
:1003700080268023240636025B020A4F666263628F
:100380008025FA206D02A6614000656100F0DEFC68
:1003900066613800A56101F00FFFFA20400000F00F
:1003A000D5FCEDE7B04D0010094A83009446402289
:1003B000634410B51C68C0006240C0241440802211
:1003C000520113431C60034B9C466044416010BDC6
:1003D00004C00140004001400123D02283401206A6
:1003E00093629361094A83009446402263441968EA
:1003F000C0004A40C02111408022520113431960BD
:10040000034B9C46052360444360704704C0014091
:1004100000400140F8B5CE464746914680B5EFF31F
:10042000108772B6124E3368002BFCD0BFF35F8F7B
:10043000CB08C55C0724C218280001230C40944651
:10044000E0401A000240904603420DD1A3406246AC
:100450002B431370BFF35F8F4346336087F31088DD
:100460000CBC90469946F8BD484601F0E9F8C046F4
:100470002C0100D0F8B54746CE46884680B5EFF34C
:10048000108C72B6214D2C68002CFCD0BFF35F8F0E
:100490009A422DD8D408055D071907242E00144070
:1004A000E640F1071ED507218946063908E0D40841
:1004B000055D07194C462E001440E640314211D02C
:1004C00001329342F3D201204042BFF35F8F0022FA
:1004D0000E4B1A608CF31088002811DB0CBC904680
:1004E0009946F8BD0123A3401D4310003D70ECE781
:1004F000BFF35F8F00232B608CF3108801204042F4
:100500004346002BEAD0089801F09AF82C0100D05D
:100510000021044B044ABFF35F8F02C39342FAD118
:100520007047C046000100D0800100D0044A107816
:10053000431CDBB2172B00D9102313707047C04641
:100540004802002000B5054B83B00100009318223B
:100550001F230348FFF78EFF03B000BD144E0010A9
:10056000480F0020024B18688007C00F7047C04634
:1005700000C00640F8B5040006200D0001F0EEF9B9
:10058000002845D02B4B2C49E3185A425341802276
:10059000D20394465B421340284A63441360284ABE
:1005A000136018008A689043FBD1224B8021E31826
:1005B0005A425341234A5B0049000620995201F0F8
:1005C000CDF92900C00001F013FCC30921D1402757
:1005D0000122260080256262A36200232C36AD0131
:1005E00035432B60062001F0B9F93900800001F095
:1005F000FFFB6023E26A53406E221A4080235B01B6
:1006000033431A60104B236310232B600D3BA3640C
:10061000F8BD0E4A934203D900230D4F0D4AD8E787
:100620007F221040013040089F011A003F1803004C
:10063000CFE7C0460080FCBF00C0004000E00040A3
:1006400000F000406416002001030000FEFF0000DF
:10065000C0FF3F00FFFF000083680B4810B58446D1
:1006600061446244090112019A18591854684B6890
:1006700001209C4201D802D00020C0B210BD1268F7
:100680000B689A42F9D8F7E7FFFFFF0F40BF002041
:1006900000217047F8B5DE4657464E464546E0B560
:1006A0001F000DAB1B7805009B460C9B1600002B12
:1006B00045D0414A0C9B9446DBB2AA689A460C9BF3
:1006C0002C68634494461B010A9A63449A600B9A0F
:1006D0001E60DA600C9A5F6094460C9B00225B00FF
:1006E0006344033B9846236843449A705A701A70D7
:1006F000637B9946002B43D052461900A06863687B
:100700009847226800282BD04B465B004B44033BA4
:10071000D1188C464146484651188870D35C002B4E
:1007200046D15346624613704B460C98637381451D
:1007300028D03CBC90469946A246AB46F8BD02681C
:10074000947B002C32D0116863008C461B196344E3
:10075000033B5B789373002B00D1D3730C94A8E711
:100760004346D1184B4650465B004B44033BD318DD
:1007700098704046125C002A00D05A704B460B70AD
:100780005346637332003B00287D00F01DFC061EBB
:1007900006D05B46002B03D15146286800F080FE4E
:1007A0000E9B002B06D00C981E70C2E70020C0E7FD
:1007B0004B70B6E70C98BCE7FFFFFF0FF0B5DE46C5
:1007C0004E46574645460023E0B58DB00A936B4B25
:1007D0008200D3580B90994600239B464B460793C3
:1007E00000F092FB079C06000F006268EFF3108593
:1007F00072B61368002BFCD022000794BFF35F8F02
:100800002468637B9946002B67D092685C4B9046C6
:100810004B441B01984443461A685B68100019005A
:10082000801BB94100295FDD0B9800F0CDFB002350
:100830000026984600279A46079C6368BFF35F8F9F
:100840005A461A6085F310885346002B08D10028B9
:10085000C6D10DB03CBC90469946A246AB46F0BD11
:100860000A9B414618024B461843D047089009910D
:100870006268EFF3108572B61368002BFCD0079402
:10088000BFF35F8F0899099A002A48DB114303D010
:10089000079B1B69002B5DD1079B1B68DA7B002A35
:1008A00007D051008A1819688C4649466244033AB9
:1008B00051704A46DA734B46079A013BD168CA5CCD
:1008C0000132CA545B46079A13615368BFF35F8FC6
:1008D0005A461A6085F3108882E70023002698465E
:1008E00000279A460020A7E7002901D100289BD1C4
:1008F0000121200000F036FD43461E685F689B68BA
:10090000079A9A464346DB689846D3684B44013BB6
:100910001B780A931B020343136100208CE72369B1
:10092000002BB9D033003C005B1A94411A0023001D
:10093000A74219D89F421BD0594604910121039127
:100940004946029141460191514607980091FFF7AF
:10095000A1FEB7E700F0D8FA089A099B06000F003D
:1009600092197B419942E5D901225242D317E3E71C
:100970009642E1D901225242D317DDE73416002016
:10098000FFFFFF0FF8B557464E46DE4645469146F7
:10099000E0B504009A464268EFF3108872B6136817
:1009A000002BFCD0BFF35F8F2668B57B002D4AD0AB
:1009B0006F0033687F19033FDB195B78B373002B3B
:1009C00000D1F373354B0022E918A36809019C4656
:1009D0004B4661440B6053464B60314BCA608B60A1
:1009E0003368DB199A705A701A70737B9B46002B20
:1009F00044D02A001900B06873689847326800280C
:100A00002FD05B4658465B005B44D719033BB87058
:100A1000D118D35C002B3ED15B460D7073735D45DE
:100A20002DD00026E36862685B19013B1B78BFF399
:100A30005F8F0021116088F310880020002E0AD1FA
:100A40001802284307E06368BFF35F8F1D6088F3D7
:100A50001088012040423CBC90469946A246AB46D5
:100A6000F8BD5B465B005B44033BD3189D70D11916
:100A7000D25D002A00D05A705B460B7075734A46EF
:100A80005346207D00F0A0FA061ECAD02900206837
:100A900000F006FDC6E77B70BEE7C046FFFFFF0F14
:100AA0008D06001070B5184C2368002B00D070BD67
:100AB000032000F01DFA032000F0E8FA1349032098
:100AC00000F03CFA182001F08BFA0500FFF72EFD2C
:100AD0000F4B2A009C46604480000E49686010203D
:100AE00000F04AFB10212860102001F07DFA01215E
:100AF000A860102001F078FA03232B75064BE860FC
:100B0000DD602560D3E7C046740F0020BD070010EC
:100B1000400000345906001034160020014B1868BC
:100B20007047C046740F0020F0B5DE464E4645467D
:100B30005746E0B585B0019310AB1B7806000393D0
:100B400000239B46984600927268EFF3108A72B6B3
:100B50001368002BFCD0BFF35F8F3568AC7B002C93
:100B600000D184E067002B683F19033FDB195B78F5
:100B7000AB73002B00D1EB73B268574B94460099CE
:100B8000019AE3181B01634419605A600E9A9A6037
:100B90000F9ADA6042462B68DB199A705A701A7005
:100BA0006B7B9946002B00D17FE022001900A868DA
:100BB0006B6898472A6800286BD04B4648465B0014
:100BC0004B44D719033BB870D118D35C002B00D02D
:100BD0007EE04B460C706B734C4567D0F3681B1975
:100BE000013B18787368BFF35F8F42461A608AF33F
:100BF00010885B46002B08D10002204305B03CBCA6
:100C000090469946A246AB46F0BD039B002B61D0AF
:100C10000E9B00200F999847030004000D000B4322
:100C200058D000290DDA0098019902000B00121B20
:100C3000AB41994215D823D000920193039B9B4668
:100C400082E700F061F902000B00A4185D4120006A
:100C5000290000900191AB4203D8EFD100998A425C
:100C6000ECD901235B42DC1700930194E6E773683B
:100C7000BFF35F8F1C608AF3108801204042BDE7FC
:100C800000999142D8D901235B42DC17009301946B
:100C9000D4E74B465B004B44033BD3189C70D119FF
:100CA000D25D002A10D14B460B706C73307D009AD8
:100CB000019B00F089F98346002800D18EE72100CE
:100CC000306800F0EDFB89E75A704B460B70ECE79B
:100CD0007B707EE7002091E7FFFFFF0F70B5426851
:100CE0000400EFF3108572B61368002BFCD0BFF33D
:100CF0005F8F2068CAB2437B93420AD0FF230B4028
:100D00005E00F3180668B4466344033B9B78002BEF
:100D100013D0E668FF23B4460B406344013B090A45
:100D20001E78C9B28E420DD000206368BFF35F8F7A
:100D300000221A6085F3108870BD22698A42F3D1BF
:100D40002361F1E7110000F0ABFBEEE7F8B504001A
:100D500000F0DAF8FA2206000F002000002300213C
:100D6000920001F0DBF88019794104000D008F42F8
:100D70002FD82CD006267642F71736196F41AF428E
:100D80002ED90026002700F0BFF832003B00121ACF
:100D90008B41002B07DC04D02900200000F0BEF8B6
:100DA000F8BD002AF8D0114B320018683B00FFF75D
:100DB000E9FD0028F0DB38000D4A536A984204D858
:100DC000916A8E42E8D99842E6D120BFF5E7864283
:100DD000D0D901246442E51707267642F717D2E7F7
:100DE000AF42D0D1A642CCD8CDE7C046740F002088
:100DF0000040054070B50E4D02000B00060028684B
:100E00000C00FFF7BFFD011E03DD20BF2868FFF7C0
:100E100065FF084B0020596A8C4203D89B6A013059
:100E2000B34200D370BD641A611E8C41E0B2F9E791
:100E3000740F002000400540F0B5D6464F464646A8
:100E4000C0B5EFF305833F22134018001038EFF3CD
:100E5000108C72B6204D2A68002AFCD0BFF35F8F39
:100E60000122110081401D4C884661631C49170016
:100E70000E788A463100C1400F400A4215D0194908
:100E80008200646A51588C4219D3174BD25843469A
:100E90009E4353461E70BFF35F8F00232B608CF37D
:100EA0001088002A06D0904704E0BFF35F8F2F60C0
:100EB0008CF310881CBC90469946A246F0BD0B4AA4
:100EC0009B00904643441A681A60BFF35F8F00236B
:100ED0002B608CF31088EDE7280100D0004005401E
:100EE000611600204C160020380F0020D03F05402E
:100EF00010B50100024A0348FFF78CFA10BDC04646
:100F0000304E00105F160020034B596A0A00986AA1
:100F1000596A8A42FAD1704700400540064A536A2E
:100F20009942FCD807D1044B02E05A6A914202D19F
:100F30009A6A8242F9D370470040054070B50400B8
:100F40000D00EFF3108672B61A4A1368002BFCD01E
:100F5000BFF35F8F002D1BD0200000F065FD164908
:100F600081420AD0200000F067FD0121200000F03E
:100F700041FD0123A340114A1360114BA400E55029
:100F8000BFF35F8F00220B4B1A6086F3108870BD91
:100F90000B4BA200D5500122A2400A4920000B7839
:100FA00093430B70044900F071FD0021200000F014
:100FB00021FDE5E7280100D0390E0010386005401A
:100FC000380F002061160020F0B5CE46474680B5A8
:100FD0002A4C616A0D00A66A616AA942FAD18B4265
:100FE00007D804D001200CBC90469946F0BDB2420F
:100FF000F8D9EFF3108872B6214C21680029FCD093
:10100000BFF35F8F012585401C4C1E4E6563E9B21E
:101010008C463178894661464F4639433170011D0F
:1010200089000A51184980004350216A0020294252
:101030000CD02000616A0C00876A416AA142FAD193
:101040008B4202D80AD1BA4208D90020BFF35F8F81
:1010500000220B4B1A6088F31088C4E7074B4F46F9
:101060001D625D6363469F4301203770BFF35F8F4E
:101070000022034B1A6088F31088B4E70040054053
:10108000280100D0611600204C16002010B5EFF3A7
:10109000108472B60A490B68002BFCD0BFF35F8F37
:1010A00001238340074A0848136202789A4302707A
:1010B000BFF35F8F00230B6084F3108810BDC04620
:1010C000280100D00040054061160020024B9C46DC
:1010D00061448900016070474000003410B504008D
:1010E000FFF724FA01002000FFF7F0FFFF23237130
:1010F000BFF35F8F10BDC04610B504000120FFF79D
:1011000021FA01002000FFF7E1FFBFF35F8F10BD60
:1011100070B505000E001400002924D0002A24D048
:1011200080686B689847296800280ED063001B19F7
:101130007200033B9219CB18033A9E7088188A5CA0
:10114000002A14D1047030000EE073009B19620075
:10115000033B1219CB18033A9C7088188A5C002A4A
:1011600000D05A700670200070BD0800FCE75A706D
:1011700004703000F8E7C046F0B5C64605000F0021
:1011800000B510210120160000F02EFFEBB2040084
:101190000373032147602800984600F025FF0023D1
:1011A00063730133A3734346FF21E373FE2320607F
:1011B000A66029402B4206D0421CFD3B0133137030
:1011C00003328B42FAD34B005918002340180338DE
:1011D0004370200004BC9046F0BDC046F8B5CE4632
:1011E000474606000C0080B5002907D04D00036873
:1011F0006D18033D5A195778002F04D120000CBCFC
:1012000090469946F8BD7900C91903398846434488
:101210005978894600215970517073683A0021004D
:10122000806898473368002814D042469A18947012
:1012300059195B5D002B00D053700F702700494691
:101240003000FFF7CBFF390002003000FFF760FFEE
:101250000400D3E7424641465D19AF709A185B5CC3
:10126000002B00D06B701470E9E7C046F0B557460C
:101270004546DE464E46E0B50D006B0001685B1941
:10128000DF1E0400C85D83B00192CA1900284CD04B
:1012900043001B18033BCB185E78B446002E16D1D2
:1012A000019E002E3ED1E67B002E04D073009B19D8
:1012B000CB18033B5D70E57300282FD100235370DA
:1012C00003B03CBC90469946A246AB46F0BD7200C6
:1012D0006244033A89184A78904600224A7091463F
:1012E0005A70010032002000FFF712FF4346824689
:1012F000002B07D05B0021684344033BCB185A788E
:10130000002A16D1424651462000FFF701FF21680E
:10131000019BCA19002BC6D00028CFD043001B1850
:10132000033BCB1800219970C8E7019B002BC5D166
:10133000B9E75000801803380918487883464846B2
:101340004870587041462000FFF7E2FE594680463B
:101350002000FFF743FF414602002000FFF7D8FEC0
:101360008046CFE7F0B54E464546DE465746E0B5E7
:10137000467B040075000068AD19033D83B0019100
:10138000415D421900294ED04B005B18033BC31846
:101390005F78BC46002F18D1019D002D40D1E57B20
:1013A000002D04D06B005B19C318033B5E70E6731D
:1013B000002931D1002330005370617303B03CBC6D
:1013C00090469946A246AB46F0BD7A006244033A85
:1013D0008018427893460022427091465A7020004D
:1013E0003A00FFF795FE5B468046002B07D05B0076
:1013F00021685B44033BCB185A78002A17D15A4620
:1014000041462000FFF784FE019B0100206842193D
:10141000002BC4D00029CDD04B005B18033BC31870
:1014200000209870C6E7019B002BC3D1B7E750009E
:101430008018033809184878824648464870587022
:1014400059462000FFF764FE53468346002B07D021
:101450005B0021685344033BCB185A78002A06D11D
:10146000594652462000FFF753FE8346C7E7500017
:1014700080180338091848464F784870587051460C
:101480002000FFF745FE390081462000FFF7A6FE49
:10149000494602002000FFF73BFE8246E0E7C046D7
:1014A00070B5040000292CD0437B8B422ED00568F8
:1014B00048004018033828188278002A21D05300A9
:1014C0009B18033BEA5CEE188A4202D11BE0002A1B
:1014D00008D053009B18033BEB185A788A42F6D188
:1014E00042785A7000230022837043702000FFF777
:1014F000BDFE617B02002000FFF70AFE6073012041
:1015000000E0002070BD43783370EBE70022190043
:10151000FFF7ACFE60730120F4E7C0462B4B2C4A6A
:1015200070B51A602B4A2C4B2C491A6010008B683E
:101530009843FBD12A4C2B4B9C4209D2013B1D1BEB
:10154000AD080135AD002D1908CC9847AC42FBD150
:1015500000F094F8244A204B1A60204A9368DB017B
:101560008033FBD14022214B214C9A675A671A677E
:10157000DA66204B9C420BD2013B1D1BED08013566
:10158000ED002D1920000834FFF7A8FDAC42F9D179
:10159000194C1A4DA168C022280000F037FDA56043
:1015A000FEF7B6FF00F0B2FBFFF77CFA144C154BC8
:1015B0009C4209D2013B1D1BAD080135AD002D1920
:1015C00008CC9847A542FBD170BDC04600E0004062
:1015D000BFCDFFFFFE7F3C0000F0004000C0004098
:1015E000580B0020680B0020FFFFFF0100F00140B6
:1015F000500B0020580B002000ED00E00000002000
:10160000680B00206C0B0020094A030010680028BA
:1016100005D00849C3188B4207D2136070470648AB
:101620000449C31810608B42F7D301204042F5E70C
:10163000A80F0020000004203019002000BEFDE7A4
:101640000FB400B5084883B000F0B6FD049B002B32
:1016500007D005A91800019100F07CFB034800F0B9
:10166000ABFD00BEFDE7C046544E0010644E0010B6
:1016700010B50148FFF7E4FF684E001030B50C20AC
:1016800083B000F071F9FEF76DFF00280ED09A4B81
:101690009A4A1A605A609A60DA601A615A619A61CD
:1016A000DA611A62964A5A6203B030BD954CA0675F
:1016B00000F062F90122944B1A60636C012BFCD19B
:1016C0000322924B1A608F4A936B012BFCD1C022EC
:1016D0008F4B92011A608F4B8F491A6010008B68F4
:1016E0009843031EFAD1022401218C4A8C48063308
:1016F000009400F055F905238A4A01218A48009494
:1017000000F04EF9894B5A68FF2A02D88022520015
:101710005A608022784C7D4B21691201834D1A60FA
:10172000002905D0606900F063FB01300138FDD16C
:10173000E0217E4B02201A681140802252012A4388
:1017400011601968484003210140116004219A6822
:101750001142FCD08022802192012A4309011160AC
:10176000802252005A60724B2361724B5968FF29E4
:1017700000D85A6003226F48634B01211A600200AF
:1017800093681942FCD0E02513681D4080235B015B
:1017900003431D6012684A40032111401960022171
:1017A000644A93681942FCD0802380219B01034343
:1017B000090119608021604B4900516063615F4BF2
:1017C0005A68FF2A00D8596080225D4BE1691201F6
:1017D0005A4D1A60002905D0606900F009FB0130FC
:1017E0000138FDD1E02255490B681A4080235B0186
:1017F0002B431A60802380229B012B4312011A6025
:1018000080223E4B52004A60E3614E4B5968FF29EB
:1018100000D85A6080224C4B216A1201494D1A604F
:10182000002905D0606900F0E3FA01300138FDD1EC
:10183000E02244490B681A4080235B012B431A6065
:10184000802380229B012B4312011A608023802277
:101850005B004B60294BD20223623C4B596891429A
:1018600000D25A6080223A4B616A1201374D1A60E9
:10187000002905D0606900F0BBFA01300138FDD1C4
:10188000E02232490B681A4080235B012B431A6027
:10189000802380229B012B4312011A608023DB02EC
:1018A0004B60174B63622B4B5A68FF2A02D8802289
:1018B00052005A608022284BA1691201254D1A60FE
:1018C000002905D0606900F093FA01300138FDD19C
:1018D000E02220490B681A4080235B012B431A60E9
:1018E000802380229B012B4312011A6080235B001E
:1018F0004B60114BA361D7E64C0F0020006CDC025B
:101900001BB70000008000403CB0004030B00040F9
:1019100000E0004000F0004000C00040002F685987
:101920000080024000389C1C00C002403080004013
:10193000001BB7003C8000404059730754800040B2
:1019400054B000406080004060B000406C800040B7
:101950006CB000404880004048B00040014B80001F
:10196000C05870474C0F00208023024A9B0003435D
:10197000D362704700800540AA23064A1B0113600A
:101980002F230549D360054B19605368002BFCDAFF
:101990007047C0460040024000B0FA0000600240BC
:1019A000F8B51D0006AB1E7801235B42436000239F
:1019B0000400836001600C20170000F019FA410157
:1019C000091A8B01591AC90009188901380000F059
:1019D0000FFAC021231D890119432123A0600B6048
:1019E0002268002AFCDA08232D0436032E43E66021
:1019F0000B60F8BD01238340002904D0034A136023
:101A0000034A13607047034A1360FBE780E200E07B
:101A100000E100E080E100E001238340014A13601F
:101A20007047C04600E200E0024B10309B68800027
:101A3000C058704700ED00E070B50D00EFF3108660
:101A400072B60F4A1368002BFCD0BFF35F8F0D4BAB
:101A500010309B6884001B590B4A934203D09D426F
:101A600001D0FFF705FE074B9B681D51BFF35F8F49
:101A7000BFF35F8F0022024B1A6086F3108870BD9F
:101A8000240100D000ED00E0CD010010F0B5DE46ED
:101A900057464E464546E0B50C0083B0EFF3108A3A
:101AA00072B65F4A1368002BFCD0BFF35F8F102221
:101AB000914681444A465B4B96009B689D595A4B20
:101AC00098469D4205D0A54216D0584FEB1B2F2BB0
:101AD00014D9544B9B689D51BFF35F8FBFF35F8F49
:101AE00000224F4B1A608AF3108803B03CBC90462A
:101AF0009946A246AB46F0BD1D00EAE701238340AC
:101B00009B465A464A4B1B681A4000925A46494B1C
:101B10001A60BFF35F8FFEF7A6FB0190002803D089
:101B2000814501D0FFF7A4FD0123290099438B686B
:101B3000A34269D00A0007E043001B189B00FB1872
:101B40009868A04211D01A00062010560028F3DA37
:101B5000009B002B05D05A46374B1A60344B1A6055
:101B6000B7E75A46334B1A60B3E7062018560028E9
:101B700022DB4200111889007C188846A168996010
:101B8000E179D971062161569971A1797F292BD804
:101B9000A488F91A6405241544440919E0240905A8
:101BA000490D2402214399801218244B9200BF183A
:101BB0001A781870BA71CBE70198002817D1FF3056
:101BC00090711F4890801D4ACF1B1078BF109871EC
:101BD000BB00DB1919015B1819025B1819045B18AB
:101BE0005B00DB191370B3E7BD210902DBE7154A7F
:101BF0001549D21A083A5002400D01439980134901
:101C000052080A43DA80A3E7062008560B00002892
:101C1000AFDA019A002AEAD10B004546D3E7C04665
:101C2000240100D000ED00E0CD0100104C020020A6
:101C300000E100E080E100E080E200E060160020CA
:101C400000BDFFFF8602002000F0FFFF00F8FFFF4D
:101C5000F8B5012504000543FEF705FBEFF31086F8
:101C600072B6244A1368002BFCD0BFF35F8F224F5B
:101C70008000E11B89108A0052181301D218130248
:101C8000D2181304D3181D4A5B005B1891680958D9
:101C9000A9421CD00622BA5693421CD01222BA5630
:101CA000934222D01E22BA56934220D02A22BA56FC
:101CB00003219A4210D0124A11781370A171BFF318
:101CC0005F8F00220B4B1A6086F31088F8BD926874
:101CD0000C491150EFE700214A005218FF219200F1
:101CE000BA18917108499180E5E70121F4E70221D2
:101CF000F2E7C046240100D04C02002000ED00E0D5
:101D000060160020CD01001000BDFFFFF0B50022DD
:101D10000324FF27802620003D00094B11009C462C
:101D20001040C0008540A14361440B680132AB43C1
:101D3000350085402B430B60202AECD1F0BDC04616
:101D400000E400E010B5002800D110BD00F026FA34
:101D5000FBE7C04610B5094A0300146884B0002CA4
:101D600008D0012200910648524203A9A047012051
:101D700004B010BD00F020FA0020F9E72C16002076
:101D8000451D001001480421014B1847A002002006
:101D9000B51D0010142310B50100188804331B88EA
:101DA000984710BD162310B50100188802331B8810
:101DB000984710BDF0B5C64600B5002916D01423CB
:101DC00004000125984618278900461843462168D3
:101DD00018883B88984701C4431E984140420540FB
:101DE000A642F3D1280004BC9046F0BD0125F9E7D6
:101DF000134A936F9B0813D210665166002905D0D1
:101E0000FFE7FFE7FFE7516F106F704704B5002849
:101E100001D00020C04302F0ABFF002104BDC0464A
:101E2000936F5B08FDD3F0B5946ED56E576F166F48
:101E3000FFF7E2FF9466D56657671667F0BD0000AE
:101E4000000000D0132370B51D78012D10D00BDDDC
:101E50002448FFF7A7FF244C01008022200000F057
:101E6000D5F8022D01D070BD1F4C204AA264FAE7BC
:101E70002E001D4C1D4AA3085B421E401D422FD060
:101E8000330022602020B1006118801B0A604A6084
:101E90008A60CA600A614A618A61CA610A624A62EA
:101EA0008A62CA620A634A638A63CA630A644A64CA
:101EB0008A64CA640A654A658A65CA650A664A66AA
:101EC0008A66CA660A674A674008102803D18A678B
:101ED000CA67A264C7E71E339B00E250A264C2E750
:101EE0000023CFE75344000068160020F11E0010C5
:101EF00007B5604601880A0A0230DF2AFAD1C9B262
:101F0000820804D3028840880004104300E000687F
:101F1000014A5050039007BD6816002051434343C7
:101F2000C9188C46110C83B24B4310B4040C6143A6
:101F300092B280B2504362431C041B0C001910BCC7
:101F400059411304120CC0185141614470470000FC
:101F5000132310B512481C78FFF724FF0100012C51
:101F60000AD003DD80220F4800F050F80E48FFF73A
:101F700011FF0E4B186010BD0A4C5422200000F0D7
:101F800045F80B4B6365A365E36523666366A3664B
:101F9000E36623676367A367E3672362E361E5E7BB
:101FA00053460000681700204C33000068180020DA
:101FB000B51F001007B5604601880A0A0230DF2A03
:101FC000FAD1C9B2820804D30288408800041043C1
:101FD00000E00068014A5050039007BD68170020D8
:101FE00010B502F057FA10BD10B502F019FA10BD85
:101FF00001480421014B1847B0020020B51D001014
:10200000014B1B6818470000B0020020014B5B68C1
:1020100018470000B0020020F8B54746CE460D0034
:1020200080B516000700002A20DD4B1E98461A4B8B
:10203000002400209946002C2BD043461B5D0D3B0D
:102040005A425341DBB22A5D0A2A13D00134A64218
:10205000F1DC864203DD311A3B6828189847AD1938
:10206000013D2B780D3B5A4253413B740CBC9046CA
:102070009946F8BD002BE9D1A04203DA211A3B684A
:1020800028189847484602213B68013498472000A9
:10209000DDE73B7CD7E7C046B84E0010F0B55746A9
:1020A0004546DE464E46D023E0B51B061C68374B3E
:1020B00083B007000D00180001A990469A4602F06F
:1020C0005FFE8146002807D1019B9C4204D0504608
:1020D00002F066FE012399466B1C03D1380002F022
:1020E000C9FC05002A4B1C68002C2FD00A23294E5E
:1020F0009B4602E0E468002C28D02268002AF9D030
:102100003368002B01D0A342F4D1637C002B2AD08A
:102110002A0039002000FFF77FFF4346002BE9D05B
:102120006B465A461A71637C002B20D0237C002B0F
:1021300026D00121236801A898476B461B790D3BE7
:102140005A4253412374E468002CD6D14B46002BED
:1021500012D1681E8541E8B203B03CBC9046994656
:10216000A246AB46F0BD290038009047D5E70121D3
:10217000236801A89847BDE7504602F0F1FDE8E763
:102180000221054823689847D7E7C046500B002036
:10219000A00F0020A40F0020B84E001010B582B090
:1021A0006B4604000022D81D01210470FFF776FF62
:1021B000200002B010BDC04670B5040002F05AFC09
:1021C0000122010005002000FFF768FF084B1C6892
:1021D000002C06D06368002B05D09847E468002CDB
:1021E000F8D1280070BDE468002CF3D1F9E7C046AF
:1021F000A00F00200D4A1368002B13D0834202D198
:1022000009E0984208D01A00DB68002BF9D10029B8
:1022100000D0D06070471A000029FBD1DB68D36082
:10222000C160F7E70029F5D01060F3E7A00F0020A8
:1022300010B500F03DF800F01FF910BDF0B5002911
:1022400010D045180D272021094B0A4A00269E5F11
:102250000478A64207D093691942FCD1013014607A
:10226000A842F5D1F0BD93691942FCD11760F2E79D
:10227000641600200040034030B50500002000290E
:1022800010DD1024094A013D93691C4208D1013038
:1022900093691C42FCD113682B548142F4D130BDA8
:1022A0000028FCD103204042F9E7C046004003402B
:1022B000E12110B50A4B49021B780A4B0A481B78EA
:1022C000FEF758F902210020FEF76EF802210120E6
:1022D000FEF76AF801210548FFF78CFF10BDC046E4
:1022E0003C5100104051001000400340C00200204B
:1022F00070B5184C82B006000D00200001A902F054
:102300003FFD002808D1D0231B061B68019A9A4282
:102310001CD0200002F044FD002001F09DFB0028AD
:1023200007D103256D42200002F01AFD280002B0FB
:1023300070BD002001F0AAFB0028F2D02A00310075
:10234000002001F0B3FB051EEBD0ECE703256D4246
:10235000ECE7C04644160020F0B54F46D646464648
:10236000C0B5354B82B007000D00180001A9994691
:1023700002F006FD002808D1D0231B061B68019A35
:102380009A4252D0484602F00BFD002001F064FB57
:10239000002842D00024002D44DD284B9A46984660
:1023A00011E03919002001F00DFC060000F0C8FC16
:1023B000002001F0B5FBFEF7A7FD43461860596009
:1023C000A419AC422EDA002001F018FC2E1B0200EA
:1023D000B04200DD3200002AE3D100F0B1FC002061
:1023E00001F09EFB002001F037FB00281AD00020EE
:1023F00001F004FC0028E4D1FEF786FD53460E00F0
:102400001A685B68002184460D4812184B419E42B1
:1024100008D8D6D19445D4D904E000200021074B38
:1024200018605960484602F09BFC02B01CBC904604
:102430009946A246F0BDC04644160020700B00200D
:1024400020A107001F2010B5FFF7E6FAFA200021AF
:10245000800010BD10B5074C0021200002F090FC58
:10246000002800D110BD00F06BFC200002F078FCC9
:10247000F8E7C0464416002070B51E4B84B01B78A8
:1024800001F0C0FD1F201C49FFF7D6FA01211F20D3
:10249000FFF7B0FA1948FEF721FEFEF73FFB0600F2
:1024A000FEF732FDFA2204000D00002392001219FB
:1024B0006B41994214D811D0012102910021019160
:1024C0000F4930000091FEF72FFB0400631E9C4172
:1024D000E4B2002808D1200004B070BD9042EBD9CE
:1024E00001225242D317E7E701210648FFF782FE97
:1024F000F1E7C04644510010552400104416002056
:1025000045240010D4020020004870479C4F001062
:1025100000487047504F001010B5002806D1124BEC
:1025200012484380063BFF3B038010BD042818D8A7
:102530000F4B8000C4580D480023811C04E0013378
:102540000A800231132B09D0E25C002AF7D1C022A5
:1025500001335B00920013439BB2E5E7CA239B0063
:10256000E2E70020E1E7C04609040000780F002000
:10257000B04F0010F0B5982357464546DE464E460C
:10258000414AE0B5D75880243D0085B06402883BBD
:1025900025400393274214D00121392000223B4BD0
:1025A00025001954597147315A541A7500200132C7
:1025B000374901F03BF88022364B92021A65364BC0
:1025C0000393FB060CD480235B011F423AD1BD422A
:1025D00054D105B03CBC90469946A246AB46F0BDEE
:1025E000294B9A6D002A28D09A462A4BB9460026D4
:1025F00001259B46170003E06D000136202E1BD0FD
:102600002F42F9D05346DB6D5B46682401229D655D
:1026100073085C4334239046B2435343E4181B4B86
:102620009C466444200000F03DFA00281AD1AF43D4
:1026300001366D00002FE1D14F4680235B01039DE1
:102640001F42C4D00022154900200A700E491D43C4
:102650000A600132012100F079FF80220D4B120344
:102660001A65B4E74346E26921790020009300230C
:1026700001F004F8200000F0E1F9D8E7290008484B
:102680007940FEF7DDFFC04600001150AC0F00207E
:102690000000105000301150100001005E160020A4
:1026A000C44F001010B501210520FFF7A3F910BD9C
:1026B000094B10B5012219703921002307484254F3
:1026C00042714732835403750022002134300133B4
:1026D00000F06EFA10BDC0465E160020AC0F002060
:1026E0008022024B5202DA647047C046002011502B
:1026F00070B5050000F07AF905201F49FFF79CF935
:10270000D0221E4C00212000D200FFF779FC0023CC
:102710001B4A1C4913701C4A402011608022520041
:102720006280A280D03AA354184A6370E062E260EB
:10273000352613600122A2554C36FF362687002627
:1027400020662430265412491248A3602161227069
:10275000E38620640360E3633433E2540E4B616428
:102760001A6480229205DA6490220C49280099505C
:10277000FFF7B6FF70BDC04675250010AC0F0020F6
:102780005E1600208001105030160020840010508A
:102790000001105080001050000011501010010076
:1027A0000B785B0602D14B78052B09D0012139202B
:1027B0000022064B5971195447311A755A54704703
:1027C000034B1A78034B1A60F0E7C046AC0F0020A9
:1027D0005E160020000011500A00F8B50723474696
:1027E000CE46547910792340D4781B02A4070343C2
:1027F0007F20A20F682480B58978944608409146CE
:1028000044433422A046CE0972433D4D4244AA18A7
:102810004FB21171F943C90FD17041424141567015
:10282000907051716246012A5CD0402B5ED83422F0
:102830006821724341435218AA181100644630318E
:102840000C70D362C100002F3CDB2E4C0027A44645
:102850006144D1600F6000283CD02B4CC100A446DD
:1028600061449160682434224443A4467243274F54
:1028700062443968AA181161402B00D240233F22DC
:10288000CB18134201D0934340333B60204B682266
:1028900059404B469C0634230C43A02173434243CA
:1028A0009B18EB189B6809060C431C6034235E439D
:1028B00034335843673B30182B5401200CBC9046EE
:1028C0009946F8BD134C0027A4466144D1600F60BF
:1028D00000280FD1342300227343EB189A600E4A6C
:1028E0001A61E3E78022D2009342A0D319000B487B
:1028F000FEF7A6FE064CC100A44661449160B1E714
:10290000AC0F00208400105004001050301600203E
:10291000000010508000105000011050D84F0010DF
:1029200010B50C00342011001A00E30958437F232E
:10293000234068245C43044B0019C018012300F0B5
:1029400037F9012010BDC046AC0F002070B57F25BF
:10295000342068230D40CC096B4360430C4EC018F3
:1029600030188378002B05D143785A425341094AE5
:102970000133936680220849120100F069F834217E
:1029800001234C4334314D4364193419237570BD10
:10299000AC0F002000201150FFF7FFFF70B57F251E
:1029A000342068230D40CC096B4360430C4EC018A3
:1029B00030188378002B05D143785A425341094A95
:1029C000013393660022084900F042F834210023C5
:1029D0004C4334314D4364193419237570BDC046DE
:1029E000AC0F002000301150FFF7FFFF80220E4B8C
:1029F000520410B51A600D4B0D491A6010008B6817
:102A00009843FBD10B4C9C2200212000FFF7F8FAE1
:102A10008022002152010848FFF7F2FA0923636778
:102A20000333A36710BDC04600E0004000F0004043
:102A300000C0004000001150000010500023002191
:102A40003222838281548361C3610362836270474F
:102A500010B5C368002901D01C682140002A11D09C
:102A60008024E400114322420CD01A6822420BD188
:102A7000094A0A401A60FFE7FFE7FFE7FFE7FFE7C1
:102A8000FFE7C368196010BD4378044A9B00817852
:102A90009A580348FEF7D4FDFFFBFFFFE802002031
:102AA00000500010F8B5467D0400002E00D168E00B
:102AB000C368C0781D68AD05AD0D002843D1E3693A
:102AC000E918E161A269551A402D2ED86B189B1A9E
:102AD0005F427B412427DBB22562E3558A424DD316
:102AE0004AD0002823D08022D2002A4361790029CD
:102AF00002D0802080010243012041406171002BFF
:102B000002D08023DB011A43E1680B685B053DD4EA
:102B1000224B13400B60FFE7FFE7FFE7FFE7FFE70C
:102B2000FFE70020E3681A60F8BD4025CEE7A36AFE
:102B30002A009C4620696144FFF768FA8422120249
:102B4000E35D2A43D2E7E269A36A9446634418002E
:102B500021692A00FFF75AFAE369E078E918E16190
:102B60000028AFD0236A9D42ACD200230122236209
:102B70002433A161E254D7E73000D5E70848FEF7D7
:102B80005FFD8178074A0848FEF75AFD6378054AD9
:102B90009B00A1789A580548FEF752FDFFFBFFFF06
:102BA0004C500010E802002020500010005000108F
:102BB00070B50400002B49D0437D002B03D00023C7
:102BC0000375322023540023A261E361151C402ABF
:102BD00031D80123ADB2521B6375534253412426B1
:102BE00025220020DBB22562A162A355A054E27821
:102BF000002A22D08022D2002A436179002902D003
:102C0000802080010243012041406171002B02D0ED
:102C10008023DB011A43E1680B685B0519D4114B73
:102C200013400B60FFE7FFE7FFE7FFE7FFE7FFE782
:102C3000E3681A6070BD4025CBE72A002069FFF7E2
:102C4000E5F984221202A35D2A43D6E7FFF72AFFA3
:102C5000F0E76378044A9B00A1789A580348FEF78E
:102C6000EFFCC046FFFBFFFFE80200200050001011
:102C7000024B5878431E9841C0B27047F80E0020AE
:102C8000024B18784007C00F7047C046F80E00206E
:102C9000F8B5372200212148FFF7B2F9204C200077
:102CA000FEF71CFA1F4B1C601F4C20001830FEF76B
:102CB00023FA200001F09EFB1C4B1D4E1D4D1C6095
:102CC000002E04D0280000E000BF1B4B1860002439
:102CD0002B78002E19D0194E174F9C420FD319D1C3
:102CE0003300984701342B78E4B2A342F5D2002098
:102CF000FFF7FEFC0020FFF7D5FC0120F8BDE30044
:102D00003A681B1B9B009B58EBE700F087FF2B7872
:102D1000002BECD000231B68FFDEC046F80E00201D
:102D2000B00E0020300F0020F0020020340F0020F1
:102D3000000000005C160020C80B00201D3C0010A5
:102D4000F0B5DE4657464E464546E0B58BB001F03D
:102D500069F9002800D122E1B24B07AD9A46B24B87
:102D60009B4653461E68B269EFF3108372B6116832
:102D70000029FCD0BFF35F8FF3612900300001F020
:102D8000ADF9B2690400F369BFF35F8F00211160F0
:102D900083F31088002800D101E16B78082BE0D87C
:102DA0005A469B00D3589F466B68002BD9D0A86821
:102DB0009847D6E77F2229799C4B0A405400C809DE
:102DC0001B191B181800012620304479B4434471A4
:102DD00044790336B4434471002A00D1E6E0944AB2
:102DE000DB7C002A06D0934A1278934200D26DE130
:102DF0009B1ADBB2002B00D0D1E08F4C6A79287887
:102E0000AB68A047ADE7894B0127984642461B783F
:102E100000203B4313702B78994600F095FD60230A
:102E20002E793340602B0DD0402B00D1DAE0F6062E
:102E3000F60E012E00D154E1022E00D110E1002E39
:102E400000D1E1E028780021FFF780FD802128787B
:102E5000FFF77CFD85E7794B002B82D000E000BFB7
:102E60007FE7774B002B00D17BE7704B187800078A
:102E7000C00F00E000BF74E76E4E6D4A0024337847
:102E8000002A00D198E06F4FA34208D8A34200D097
:102E900095E00134E4B2A34200D262E7F6D9396882
:102EA000E2008C46121B920062449269002AF0D024
:102EB0002878904701343378E4B2A342E4D250E753
:102EC0003722002159482F78FFF79AF81022FF2166
:102ED0005D48FFF795F855481222FF211330FFF7A0
:102EE0008FF800F027FD534E514A00243378002A12
:102EF00000D170E0554A9046524A9146A34245D8C7
:102F000066D143463800984701343378E4B2A3428F
:102F1000F4D24F4B002B00D123E700E000BF20E7A5
:102F2000424B37229846002118002F78FFF768F8A7
:102F300043461022D81CFF21FFF762F840461222B8
:102F4000FF211330FFF75CF800F0F4FC394E384AEB
:102F500000243378002A35D03A4A91469C420CD35B
:102F600036D13A4B3800984701343378E4B2A34263
:102F7000F4D242462B799370F3E64A461268E30096
:102F800094461B1B9B0063445B68EBE74A46126850
:102F9000E30094461B1B9B0063445B68B2E70BB0E5
:102FA0003CBC90469946A246AB46F0BD6A7928786B
:102FB000AB6800F0DDFCD4E6002B00D1D1E60023A5
:102FC0009B69FFDE380000F065FE3378002BD0D01F
:102FD00000235B68FFDE380000F05CFE3378002BD6
:102FE00097D0F5E71B4B002B00D12BE71A480028A0
:102FF00001D000F0A9FC484608A900E000BF040089
:10300000002C00D0ADE61DE7202B00D19AE0002B6C
:1030100000D017E76B79092B00D913E70F4A9B0003
:10302000D3589F46340F002070500010F80E002037
:10303000000000005C160020513E0010000000005F
:1030400000000000C80B0020FB0E0020953C001083
:10305000000000000000000000000000945000107C
:103060007F22297A0A400292082A00D9EAE6C80992
:103070000190002B00D182E0002453000293019ABA
:10308000029B94464344C74A6344DB7C002A06D033
:10309000C54A1278934200D23BE19B1ADBB2002B67
:1030A00000D02DE1C148C24E00F04EFC4846F36806
:1030B00008A99847002800D122E160222B791A4202
:1030C00000D04EE6002000F03FFC4AE6DA00D31ABA
:1030D000B84A9B001268D318002B00D15FE75C69E7
:1030E0008CE62B7A0F2B00D9ACE6AE4A4344DB7852
:1030F000002A05D0AC4A127893425ED39B1ADBB209
:10310000002B00D09EE6A948A94C00F01DFC4846C3
:10311000E36808A99847002800D022E66022110041
:103120002B7919401A4200D08CE66B790A2B00D01B
:1031300088E606AB9A1C11700123484608A900F0E6
:103140009DFB0EE62B7A0F2B00D97BE6954A434474
:10315000DB78002A06D0944A1278934200D202E12A
:103160009B1ADBB2002B00D06CE69048904C00F02C
:10317000EBFBE368484608A99847040040E76B79F1
:103180000393012B00D1D8E0032B00D1CBE0002B1F
:1031900000D057E65300019A029394464344634497
:1031A00020335B7906AA9B07DB0F02321380484667
:1031B000022308A900F062FB61E77E4ADC00E31A03
:1031C00014689B00E418002C00D13BE620699CE7C2
:1031D000EB88012B00D035E6434608221B78934349
:1031E0004246484608A9137000F030FBB9E5434653
:1031F0000220197806AB9A1C8B0689080140DB0F68
:103200000B4313804846022308A900F037FBA8E5CA
:103210004346AA7903925B78002B02D1002A00D0A2
:10322000D0E04346039A484608A95A7000F00EFBC6
:1032300097E5434606AA5B7802321370484601239D
:1032400008A900F01BFB8CE5EB88A8791B0A0F2B63
:1032500000D9F7E5584A9B00D3589F4608A800F0CC
:1032600079FB4846A979FFF723FA434602221B78E7
:1032700013434246137074E5EB88012B00D0E1E55F
:10328000434608221B781343AAE74C4B002B00D17E
:10329000D8E500E000BF040006AB9E1C0222A11C82
:1032A0003000FEF7B3FE22004846338808A900F03C
:1032B000E5FA002800D054E5C4E5414B002B00D1CD
:1032C000C0E500E000BF021E00D1BBE54846137810
:1032D00008A900F0D3FAECE72989FFF71DF9021ECF
:1032E000F4D1AFE5FFF714F9041ED5D1AAE5FFF735
:1032F0000BF91223020008A9484600F0BFFAD8E7EC
:1033000060222B791A4200D07AE6002000F01CFBE4
:1033100076E6284ADE00F31A16689B00F618002E9F
:10332000EED03069C0E6EB88002B27D05300029323
:10333000484608A900F08AFAA1E6EB88002BF5D1EF
:103340004846FFF72BFB019A029B94465B000293D1
:103350004344634420335A790399B2435A715A79EA
:103360008A435A71E4E7134ADC00E31A14689B00AD
:10337000E418002C00D165E52069F8E64846FFF71F
:10338000E5FA019A02219446029B5B0002934344B2
:10339000634420335A790A435A715A7917435F714B
:1033A000C6E7C046000000005C160020A53D0010E6
:1033B000FC500010C80B0020BC50001000000000A2
:1033C00000000000501EC0B2FFF7A2F8002800D194
:1033D00038E54378022B00D034E50121C27906009C
:1033E000931152110B400A4012015B0113434246F4
:1033F00012782F318A43134342461370C378827880
:103400001B021343C31809360493049BB34200D82C
:1034100088E00023727802930B2A04D13378029655
:10342000F3181E005A78042A00D00BE5049B424A88
:103430009B1B9BB20193414B00241B78002A10D1A7
:103440001CE09C4226D13E4B31004846019A9847E9
:10345000002822D1394B01341B78E4B2A34200D2B8
:10346000F0E49C42EDD2374B1B680593059AE300CC
:1034700094461B1B9B0063449B68E5E7310048466C
:10348000019A00F019FC071E53D12C4B1B78002B1E
:1034900000D1D7E400239B68FFDE0700082F00D887
:1034A000D0E4019BBB4200D2CCE44246B378D218B0
:1034B000D178FF2900D0C5E4D470029A002A15D033
:1034C00091781000994200D0BCE4127973799A4245
:1034D00000D0B7E4C278012A08D9023A0431414445
:1034E000D2B2080001322100FEF78AFD7F213200AE
:1034F00000238C465178052907D161469078014018
:10350000490041441331C0090C5411785B189BB237
:103510005218BB42EED3094BF6191B78A34200D3D5
:1035200073E78FE4084B002B00D17AE600E000BF80
:1035300077E6014CB2E7C046000000005C160020B0
:10354000B93C0010C80B00200000000030B585B069
:1035500005000C000C22002101A8FEF751FD6B466E
:103560001D715C71042C4BD005D8022C30D0032C7B
:1035700024D105B030BD052C20D12A4B1A78D207B2
:10358000F7D504211A788A431A70274B1C68A26960
:10359000EFF3108172B61368002BFCD0BFF35F8F7E
:1035A000E161200001A900F065FEA269E369BFF3B3
:1035B0005F8F0021116083F31088DAE71A4B1C68D3
:1035C000A269EFF3108172B61368002BE6D1FBE716
:1035D0000121144B1A788A431A701A780331A243D6
:1035E0001A7000225A701A788A431A700E4B1C689F
:1035F000A269EFF3108172B61368002BCED1FBE7FE
:10360000084B1A78D207B4D504211A780A431A70E5
:10361000054B1C68A269EFF3108172B61368002B8A
:10362000BCD1FBE7F80E0020340F0020002330B59A
:1036300085B001AD6B8028700633082202A86B703C
:10364000FEF7E4FC0C4B1C68A269EFF3108372B622
:1036500011680029FCD0BFF35F8FE36129002000CF
:1036600000F008FEA269E369BFF35F8F00211160DB
:1036700083F3108805B030BD340F0020F0B5C64686
:10368000804600B584B001AC0F001600002108226E
:1036900020001D00FEF7B4FC43462370072363702F
:1036A0000F4B65711D682771A660AA69EFF310833F
:1036B00072B611680029FCD0BFF35F8FEB61210067
:1036C000280000F0D7FDAA69EB69BFF35F8F0021E6
:1036D000116083F3108804B004BC9046F0BDC0466E
:1036E000340F0020F8B54746D64680B59846089B6B
:1036F00006000C00171E9A4621D0002506E052460F
:10370000137023780135E418BD4218DA6378052B6D
:1037100017D1E1788907890F414512D12100300086
:10372000FFF75AF800280CD0A378DA09012AE6D16D
:10373000099A013513702378E418BD42E6DB0120B5
:1037400000E000200CBC90469A46F8BD10B5FFF78B
:1037500043F810BD70B57F240C406300144CC909B8
:10376000E418641820346379DB07DD0F002B18D1CF
:1037700063795B0701D5280070BD01210D4E4942D8
:10378000306801F005FB6379DB07DD0F002B0AD100
:1037900063795B0708D404226379012513436371BD
:1037A00002E00025E7E70025306801F0D9FAE2E7FA
:1037B000F80E0020300F002070B50C0001210F4DD5
:1037C0004942286801F0E4FA7F2121404B000C496E
:1037D000E409C918091920314B790024DB0708D402
:1037E0004B795B07DC0F002B03DA04224B79934300
:1037F0004B71286801F0B4FA200070BD300F002032
:10380000F80E002070B57F240C4065000E4C0600B9
:103810006419C8092418203465790020ED0700D503
:1038200070BD01256079284360713000FFF778F89A
:103830000028F5D1012263799343637163790332E0
:1038400093436371ECE7C046F80E002070B50A4E52
:103850000500082230000C00FEF7D8FB002161565D
:103860000023C943C90F2800F3600022C901B360D7
:10387000FFF756F870BDC0469C0E0020F8B5CE4646
:1038800047469046294E80B58146082230000D00FB
:103890001F00FEF7BBFB4346B3600023F381EC79C6
:1038A000AB7924021C43231CBC4200D93B1C9FB2B1
:1038B000B381002C12D0002F1ED04346002B32D0F3
:1038C0003B1C402F1ED89FB233787F2B1FD800217E
:1038D000174A3B004846FFF723F809E000216956E4
:1038E0000023C943C90F00224846C901FFF718F851
:1038F0000CBC90469946F8BD33787F2B10D98021B7
:103900000022E6E740239FB233787F2BDFD9084CB3
:103910003A0041462000FEF779FB80212200D8E7DB
:1039200000210022D5E70020E2E7C0469C0E0020DF
:10393000B80E002010B5142200210248FEF760FBEB
:1039400010BDC0469C0E0020014B18617047C04658
:103950009C0E002010B5054C010008222000FEF747
:1039600055FB0023A360E36010BDC0469C0E002001
:10397000F8B5364D1C002B780600DA09C9098A42D1
:103980000CD00027002C01D03800F8BD304B013797
:10399000002BF9D02900FEF703FFF5E77F2B06D8AF
:1039A000A868002837D022002A49FEF72FFBAB6811
:1039B000EA8919191219EB8892B2EA81A960934237
:1039C00015D03F2C13D9AC89A01A071C80B240280F
:1039D0002DD82B78BFB27F2B2BD80021A24233D019
:1039E0001C4A3B003000FEF79BFF0700CCE72B6929
:1039F000002B04D029003000984700280DD000216A
:103A000069560023C943C90F00223000C901FEF7DF
:103A100087FF0700B8E70027B6E700213000FEF770
:103A200095FF80213000FEF791FF0127ACE740278A
:103A3000CFE7A24207D0074C3A002000FEF7E6FA93
:103A400080212200CDE780210022CAE79C0E0020C1
:103A5000A1270010B80E002010B50400FFF708F9E8
:103A6000002801D1002010BDFFF70AF90028F9D184
:103A700060000419230104481C1B240104190120BF
:103A800023791840EFE7C046CC0B0020030040002C
:103A9000C01810B50301181A0001034B1030C018EC
:103AA00000F002FB10BDC046CC0B0020F0B5440076
:103AB00020180401241A24012600C646174F103688
:103AC000F61900B5300092B200F05CFB0500300042
:103AD00000F0F6FA3F2803D8280004BC9046F0BD59
:103AE0003B190020D9789846FFF734FE0028F3D020
:103AF000300000F0E5FA3F280AD994239B00E21831
:103B00004346D219D97800204023FFF77BFEE3E734
:103B100043460020D978FFF74FFEDDE7CC0B0020AD
:103B2000F8B54746CE4680B547003B181C01E41A5D
:103B30002401234B260098462836464405003000D1
:103B400000F0B2FA002804D100200CBC904699463F
:103B5000F8BDA146C1444B4600209978FFF7FAFD15
:103B60000028F1D0A4239B009C46644444443000C8
:103B70004022210000F006FB061E16D0FFF778F861
:103B8000002812D0FFF77CF800280ED14B461B7995
:103B9000DB070AD54B462200997800203300FFF757
:103BA00031FE0028D0D03000CFE77D192B015D1BFE
:103BB0002D014544A9780020FFF7FEFDC4E7C0466B
:103BC000CC0B002043001B1870B51C01E41A240123
:103BD000094B2834E418050092B2200000F08CFB59
:103BE0000600200000F060FA3F2801D8300070BDC8
:103BF0002800FFF795FFF9E7CC0B002003004000F9
:103C0000C01810B50301181A0001034B2830C01862
:103C100000F056FA10BDC046CC0B0020B42270B59F
:103C20001A4C82B0002120009200FEF7E9F9FF2330
:103C30006371174B8026E3800123002521002000BB
:103C4000238176000733658123733200009540316C
:103C5000073B103000F0ECF9210020004131320028
:103C6000FF3100950123283000F0E2F990239B00FA
:103C7000E5182800FDF732FA92239B006562E518EB
:103C80002800FDF72BFAE56302B070BDCC0B0020D5
:103C900000C2FFFF10B5074C052200212000FEF7EF
:103CA000AFF92000103000F0A5FB2000283000F014
:103CB000A1FB10BDCC0B0020F0B54B79060083B002
:103CC000022B02D18B79022B03D00025280003B0F0
:103CD000F0BDCB79062BF8D82F4FBB78002BF4D151
:103CE0008B7809253B700C780C196378242B0BD149
:103CF000082A02D80FE0AA420DD32378E418ED1861
:103D00006378ADB2242BF6D0052B20D0042B02D142
:103D100063790A2B2ED0214C200000F0D1F93F28E6
:103D2000D4D92600103E0020F178FFF713FD0028BB
:103D3000CCD0200000F0C4F93F2816D990239B0076
:103D4000E218F17840230020FFF75CFDBEE7210078
:103D50003000FFF7FBFC0028B7D0A3787B702378F6
:103D6000ED18E4186378ADB2D0E7F1780020FFF7E2
:103D700023FDABE70A4B277801930133009302221E
:103D800002233000E119FFF7ADFC00289DD00E356D
:103D9000ED19ADB2BFE7C046CC0B0020DC0B002014
:103DA000CE0B002060230A7870B513400024202B2E
:103DB0000BD10B4A4B790D7910781B022B4398429B
:103DC00003D14B780134202B01D0200070BD054B6E
:103DD000002BFAD00020911D00E000BFF5E7C0469F
:103DE000CC0B00200000000060230A7870B513405F
:103DF0000024202B11D1144A4B790E7915781B021F
:103E000033439D4209D14B78212B08D81F2B04D96D
:103E100007230632FFF732FD0124200070BD222B5C
:103E2000FBD1CD788B782D021D431571FFF70EFD68
:103E3000064B0124002BF0D029006A080020224004
:103E4000214000E000BFE8E7CC0B002000000000AC
:103E5000F8B54E464546DE465746E0B51E00644B73
:103E600080469946DB780D008B4200D072E04F46C9
:103E70001037002E19D094245E4BA4004C44002B24
:103E800000D194E04F46A3199B46CA461037210043
:103E9000380000F0EFF953465B79FF2B02D0217810
:103EA00099425DD00134A345F1D1534B002B05D08D
:103EB000380000F0F9F8002800D084E0380000F065
:103EC000FFF83F282FD8103FBB789D4207D0012430
:103ED00020003CBC90469946A246AB46F8BD474BF5
:103EE000002B02D0002000E000BF454C200000F075
:103EF000DBF8002838D1200000F0D6F80028E6D101
:103F0000002EE4D0B306E2D1283CA1784046FFF76A
:103F100021FC2500041EDAD0002300224046A978A7
:103F2000FFF770FCD4E73C00103C0020E178FFF77D
:103F300011FC002839D0380000F0C2F83F2830D9F1
:103F400090239B00FA1800204023E178FFF75AFCE9
:103F5000A378BAE74B469B788B42C0D00024B7E7E2
:103F6000002000E000BF9DE72500283D0020A97843
:103F7000FFF7F0FB0028BED09A239B00E7184022F1
:103F80003900200000F0FEF88246002803D0FEF73A
:103F90006FFE00281BD14B4600209978FFF70CFCE0
:103FA000A9E70020E178FFF707FCA3788DE74F46EB
:103FB000A3199A46103721003800013400F05AF94D
:103FC000A245F8D171E7002000E000BF76E7FEF7D8
:103FD00057FE0028DFD12B79DB07DCD553463A00AA
:103FE0000020A978FFF70EFC002800D06FE782E7D9
:103FF000CC0B0020000000000000000000000000CA
:10400000F40B002070B5064D2C78002C01D0200058
:1040100070BDFEF73DFE0028F9D001232B70F6E7B6
:104020005D160020014B18787047C0465D160020D1
:10403000F0B5C64600B5140006AA1E00137880220B
:1040400005000F009846120294422BD840690028C0
:104050001AD00121494200F09BFE4346AC80640027
:10406000A4B22B72631EAB81002368696442EB81AA
:104070002F60EE806C812B82002811D000F070FE42
:10408000012004BC9046F0BDAC806400A4B22B7249
:10409000631E6442E8812960EE80AB816C812882D6
:1040A0000120EEE70020ECE710B5C489018A020088
:1040B000601A80B28C4202D25389C01A80B210BDFD
:1040C00010B5C489018A8388621A92B28C4202D2E6
:1040D0004089121A92B2981A80B210BDF8B5040045
:1040E00040690E00002803D00121494200F050FE33
:1040F000E589208AA9B22A1A83B292B2854202D2F5
:104100006089121A92B2A088A789904205D20A1A31
:10411000BA422BDC92B222820200002A2ED0BB428D
:1041200006D961895B189BB2984203D81B1A9BB2CF
:104130009842FBD9E288216853433000C918FDF743
:1041400065FF012501200122A789218A8BB2091868
:10415000B94210DD61895B18D3189BB26069238274
:10416000002801D000F0FCFD2800F8BD628982180B
:104170008A1A92B2CFE79B189BB2EFE70020002586
:10418000E3E7C046F0B5C64604004069884617001C
:1041900000B5002803D00121494200F0F9FDE08973
:1041A000218A82B2451A8BB2ADB2884202D26189AD
:1041B0006D1AADB2A688A089AE4207D2931B834286
:1041C00036DC9BB235002382238A9BB2002D39D086
:1041D0003A1CAF4231D895B2834205D961895B1848
:1041E0009BB201E09B1B9BB29E42FBD95A192F0048
:1041F000E188B24228DC0A005943236840469C46C5
:104200006A436144FDF702FFA089228AD71993B25D
:10421000874214DD62899B18EB189BB26069238288
:10422000002801D000F09CFD280004BC9046F0BDA1
:104230006389F318D31A9BB2C4E72A1CCBE75B1936
:104240009BB2EBE70027E0E7F61AB6B232004A432A
:104250005943236840469C466144FDF7D7FEE388F6
:10426000AA1B180070435A4321684044FDF7CEFE54
:10427000A089CAE7F8B5040040690E00002803D001
:104280000121494200F084FDE289218A95B2531A46
:104290009BB2914202D962899B1A9BB2A2889A4230
:1042A00026D0A1892B00A94206D26389EB189BB2C4
:1042B0009A4203D89B1A9BB29A42FBD9E2882168A2
:1042C0005343C8183100FDF7A1FEA389AB420AD9B8
:1042D0000135ADB260690127E581002801D000F009
:1042E0003FFD3800F8BD6389ED180135ADB2F1E747
:1042F000277A002FD5D1F4E7F8B54746CE4604001B
:1043000080B515000F00002A52D04069002803D064
:104310000121494200F03CFDE689237A208AA188E8
:10432000B6B280B2002B38D1331A9BB2864202D289
:1043300062899B1A9BB2CB1A1A1C9BB2AB4252D811
:1043400093B298461D00E288A0893300B04205D29E
:104350006389F3189BB201E05B1A9BB28B42FBD2DC
:10436000581988422ADC534321686A43C818390027
:10437000FDF74CFEA38975199D421CDD6389F61873
:104380004644B6B26069E681002801D000F0E8FC3E
:1043900040460CBC90469946F8BDA846E288A94222
:1043A000D2D26D1A554388467F19E0810D00CBE7C4
:1043B00000239846ECE74644B6B2E3E7C91A89B24F
:1043C000894653432168C8184B4639005A43FDF7C4
:1043D0001DFE4B46E188EA1A4A4359432068791882
:1043E000FDF714FEC6E72A1C93B298461D00E2882A
:1043F000AAE7C04610B50400406900280DD001218D
:10440000494200F0C5FC00236069E3812382002853
:1044100001D000F0A5FC012010BDE0812082FAE768
:1044200010B5044B0A001B680100180000F004F8E6
:1044300010BDC0461003002010B5514300F03EF8F7
:10444000041E0ED00300083B5A6803239A43043A23
:10445000242A15D80300132A05D800221A605A60AE
:104460009A60200010BD00210833016041601B2AC2
:10447000F3D98160C160242A06D003001033ECE731
:104480000021FDF7BDFDECE7030001611833416138
:10449000E3E7C04610B5034B0100186800F00EF8C2
:1044A00010BDC0461003002010B5034B0100186872
:1044B00000F064FB10BDC04610030020F0B5574665
:1044C0004546DE464E46E0B50D000B3583B007008D
:1044D000162D22D8102900D9BBE000F0B5FA10251E
:1044E00018230220D14EF3181A005C68083A94424F
:1044F00000D1BEE0032362689A431300E268A1681A
:10450000CA6091600122E318596838000A435A6072
:1045100000F09CFA200008309EE007239D4300D560
:1045200097E0A94200D994E000F08EFAF823FF3317
:104530009D4200D8ADE1680A00D194E0042800D97A
:1045400080E138239846A80980443930C100B74E2D
:1045500071180839CC68A14218D0032362689A43C5
:104560001300521B0F2A00DD36E1002AC6DA0323AE
:104570009C4608E06246636893435A1B0F2A00DD9D
:104580002AE1002ABADAE468A142F3D132003469A0
:104590000832944200D177E0032361689943894649
:1045A0000B00491B0F2900DD77E1726132610029A0
:1045B000A8DA9F4A914500D910E1DA080123911049
:1045C0008B40D200716892190B4391687360E2606E
:1045D000A1609460CC60012182109140994259D829
:1045E0000B4205D103229043490004300B42FBD01B
:1045F00003239846C3009946B144CC46824663469D
:10460000DC68A44507D129E1002A00DB32E1E46837
:10461000A44500D122E14246636893435A1B0F2A06
:10462000F2DD01208046611905436560A068E568F8
:104630000836C560A8604046F160B160104348602C
:10464000CE608E603800E25000F000FA20000830A2
:1046500002E00C2300203B6003B03CBC904699462E
:10466000A246AB46F0BD80213F23890040209846FA
:104670006DE7DC680230A34200D03BE732003469CA
:104680000832944200D087E701217368821091407C
:104690009942A5D90323B46862689A439046AA4216
:1046A00003D3531B0F2B00DD88E023004344614AF2
:1046B0000193614B93469A4612681B68EB180132CE
:1046C00000D139E15D4A944663441B0B1B03009300
:1046D0000099380000F0BCF903008146013300D195
:1046E000F6E0019B834200D9F0E051464968009B07
:1046F0008C46514663444B6001991A00494500D1EC
:104700004FE15B461B68013300D154E14B460199F0
:104710005B1A9A1853465A6007234A461A40019278
:1047200000D113E108214B4689469B1A9944009910
:10473000434B49449B1A5B1A1B051B0D0091380023
:1047400019009B4600F084F9431C00D14FE14B4611
:10475000C01A03005B440093534652465B68012134
:104760005B4453604A464846B260009A0A4342603E
:10477000B44200D123E142460F2A00D821E10720AC
:104780000C3A824360680140052011436160A11822
:10479000486088600F2A00D934E14A464C46526886
:1047A0005146C96A994201D25146CB625146096BC2
:1047B000994200D38EE051460B638BE00122290021
:1047C00013431143651961603800B5606B6000F0F8
:1047D0003DF9200008303FE74046D7E65A0A042A50
:1047E0006ED9142A00D9C1E011005C325B31D200CD
:1047F00008235B429C46B218944463469A6803239C
:104800009846944500D19AE04346516899434945FA
:1048100002D992689445F7D1D3689C467368614683
:10482000A260E1608C60D460D5E6C04648070020F5
:10483000FF01000040070020940B00200F10000033
:1048400008100000142852D9542800D996E06E238D
:104850009846280B80446F30C10078E608239B46B9
:10486000073BDC449B46DA4443465246134200D0A1
:10487000C5E64CE00122E318596838000A435A6043
:10488000E368A268D3609A6000F0E0F82000083086
:10489000E2E62B00E808083324E6012360191D43F3
:1048A000656070613061C26082601A004B460A43E5
:1048B00042603800E15000F0C9F820000830CBE633
:1048C0009A09110039323831D20091E7B44260D0F0
:1048D000B468626803239A43531BAA4202D30F2B86
:1048E00000DD6BE7380000F0B1F80020B4E65B2390
:1048F000984680445C30C10029E608235B429C4610
:10490000E1444B469B6801384B4500D097E0434655
:104910000342F2D173688B4373604900994200D916
:10492000B8E6002904D1B5E6042294464900E244E1
:104930000B42F9D050465DE610330093C8E689106B
:10494000023B8B4071680B43736068E7009B380043
:104950004B441B055B421B0D19009B4600F078F889
:10496000431C00D0F3E600239B46F5E6542A2AD8E0
:104970001A0B11006F326E31D20039E7AA235B00A7
:1049800098422AD8DD3B9846E80B80447830C10035
:10499000DDE553465B68009A9C46534662445A6084
:1049A000AFE6090500D0ACE6009AB4684244013194
:1049B0000A436260F4E65B464A461A60ACE64C463F
:1049C000EEE641608EE7AA2149008A4224D8DA0B3C
:1049D000110078327731D2000AE71A4B984224D876
:1049E0007C239846A80C80447D30C100AFE5009A36
:1049F000019B94464A46083B63449B1A009300235C
:104A00009B46A9E621003800083100F0B7F853466C
:104A1000B4685B686268C3E60A498A420BD89A0C9C
:104A200011007D327C31D200E2E6FE217E23890036
:104A30007F2098468BE5FE227E219200D8E673689F
:104A40006BE7C046540500007047C0467047C0463B
:104A5000002370B5064C050008002360FCF7D4FD68
:104A6000431C00D070BD2368002BFBD02B60F9E7FE
:104A70002C19002010B5830727D00378002B26D0EF
:104A80000300032102E01A78002A1CD001330B42F4
:104A9000F9D119680F4A104C8A188A4322420FD163
:104AA000043319680B4A8A188A43224208D1043316
:104AB0001968084A8A188A432242F1D000E001337B
:104AC0001A78002AFBD1181A10BD0300E1E7002074
:104AD000FAE7C046FFFEFEFE80808080F8B50C003D
:104AE0000600FFF7B1FF204FBB685D6803239D43BD
:104AF0001E4B2C1B9C466444240B1D4B013C240381
:104B00009C4207DD00213000FFF7A2FFBB685B1964
:104B1000984204D03000FFF799FF0020F8BD6142B1
:104B20003000FFF795FF431C0DD00122BB682D1B01
:104B300015435D600F4B30001A68141B1C60FFF7B3
:104B400085FF0120EAE700213000FFF781FFBA6806
:104B5000831A0F2BDEDD08490968401A05490860F1
:104B600001210B435360D5E748070020EF0F0000F9
:104B7000FF0F0000980B002040070020F0B5D6463C
:104B80004F4646460500C0B50C1E5CD0FFF75CFFE3
:104B9000210008394F6801243B000322A343C818B1
:104BA00046689643B146664EB268824200D175E0CF
:104BB0004A464260821894463C4229D10F68C91B7C
:104BC0008A68DB1990466246576808229446274057
:104BD000B444BA46E04556D0CA6894464246674651
:104BE000D7606246474697605246002A13D1012299
:104BF0004B44CF18BC468468524F1A43BC4200D184
:104C00007AE0C068E06084604A606246136005E054
:104C100057682742EBD01C434C6003604A4A9342DA
:104C200016D8DB08FF3A9810FF3A82407068DB0024
:104C3000024372609E19B368CE608B60B160D96028
:104C40002800FFF703FF1CBC90469946A246F0BD22
:104C50005C0A042C3AD89C09200039343830E4002E
:104C60003419083CA268032794423ED05068B843E8
:104C7000984202D992689442F8D1D468CC608A6094
:104C8000A160D160DCE7002F55D1C2684B44806839
:104C90001C43C26090604C60CB50D1E74B443C4217
:104CA00006D10A68891A88689B18CA68C260906031
:104CB00001221A434A60254AB16012689A42BFD85D
:104CC000234B28001968FFF709FFB9E7142C07D90F
:104CD000542C19D81C0B20006F346E30E400BFE751
:104CE00020005C345B30E400BAE70123801083408D
:104CF000706803437360C1E7E160A1604A60624687
:104D0000CC608C6013609BE7AA204000844205D8E9
:104D1000DC0B200078347730E400A1E70D488442B2
:104D200005D89C0C20007D347C30E40098E7FE24FC
:104D30007E20A40094E71C434C60036080E7C046DB
:104D40004807002050070020FF0100004407002012
:104D5000940B002054050000F8B5C0460000000088
:104D600001B40248844601BC604700BFED01002049
:104D700001B40248844601BC604700BF1502002010
:104D800001B40248844601BC604700BF0D01002009
:104D900001B40248844601BC604700BF55010020B1
:104DA00001B40248844601BC604700BFC100002036
:104DB00048656C6C6F20576F726C640A00000000CD
:104DC0005269676874204C45440000004C65667465
:104DD000204C45440000000054686973206973202A
:104DE0006120746573742062696E6172792E0000AF
:104DF00006005250197CA0B6D84D00100900525040
:104E000000800000CC4D001009005250000001004D
:104E1000C04D00104E6F207370696E6C6F636B73C2
:104E20002061726520617661696C61626C65000069
:104E3000486172647761726520616C61726D2025D2
:104E40006420616C726561647920636C61696D6571
:104E5000640000000A2A2A2A2050414E4943202A91
:104E60002A2A0A000A0000004861726420617373F4
:104E70006572740052656C6561736500312E302E69
:104E8000310000007069636F000000007465737486
:104E900000000000466562202037203230323100A9
:104EA00006005250BBFF3CB6844E00100600525024
:104EB000D3F07542744E00100D0A00005541525453
:104EC00020737464696E00005541525420737464F9
:104ED0006F7574005541525420737464696E202FAD
:104EE000207374646F7574000600525053B4F4A1BB
:104EF000D44E00100800525092000000555342203A
:104F0000737464696E202F207374646F757400006D
:104F10000600525053B4F4A1FC4E0010526173705D
:104F20006265727279205069000000005069636FF9
:104F30000000000030303030303030303030303031
:104F400000000000426F617264204344430000008F
:104F500009024B00020100A07D080B0002020200C2
:104F600000090400000102020004052400200105DC
:104F70002401000104240202052406000107058122
:104F80000308001009040100020A000000070502DE
:104F900002400000070582024000000012010002EA
:104FA000EF0201408A2E0A00000101020301000005
:104FB000000000001C4F00102C4F0010344F001058
:104FC000444F0010556E68616E646C6564204952F0
:104FD0005120307825780A0049736F6368726F6ECC
:104FE0006F757320774D61785061636B6574536999
:104FF0007A6520256420746F6F206C61726765008C
:1050000065702025642025732077617320616C72A0
:105010006561647920617661696C61626C6500002C
:1050200043616E277420636F6E74696E75652078B6
:10503000666572206F6E20696E61637469766520A3
:105040006570202564202573000000005472616E95
:1050500073666572726564206D6F72652064617439
:1050600061207468616E20657870656374656400A2
:10507000622D0010202F0010C02E0010782E00107E
:10508000622E0010562E0010062E0010B42D0010B7
:10509000A82D0010EE310010D0310010442E001069
:1050A00078320010442E00105C320010483200109C
:1050B000442E00103232001010320010442E001026
:1050C000EE320010E4320010D8320010442E0010EE
:1050D000442E0010BA320010442E0010442E00104E
:1050E000442E0010442E0010442E0010442E0010B8
:1050F000442E0010442E00108A3200101D3C001077
:10510000953C0010B93C0010E93D0010A53D001091
:08511000513E001000000000F8
:10511800F04D0010FC4D0010084E0010B4020010B5
:10512800A80200109C020010A04E0010900200106F
:10513800AC4E0010E84E0010F44E0010104F001056
:1051480010B502680024EFF3108172B61368002BC3
:10515800FCD0BFF35F8F03797F2B0BD80368BFF3B5
:105168005F8F1C6081F3108820BF0268EFF3108105
:1051780072B6EBE7D0231B061B6803710368BFF305
:105188005F8F00221A6081F3108810BD030010B5EC
:105198000068EFF3108472B60268002AFCD0BFF3EF
:1051A8005F8F04229A56002A0BDB00290FD00020BB
:1051B8000A601B68BFF35F8F00221A6084F31088AF
:1051C80010BDD0221206126801201A71F1E70020E2
:1051D800EFE7C046F0B5C64600B50C00804600F0C3
:1051E8005BF8FA2206000F0020000023002192003D
:1051F80000F05AF88019794104000D008F4230D828
:105208002DD0002643461A68EFF3108372B6116852
:105218000029FCD0BFF35F8F424612797F2A0ED84F
:1052280042461268BFF35F8F166083F31088200030
:10523800290000F041F80028E4D000200CE0D0223A
:105248004146120612680A710A68BFF35F8F00218F
:10525800116083F31088012004BC9046F0BD86429B
:10526800CFD901246442E517CBE7C0460268EFF3C3
:10527800108172B61368002BFCD0BFF35F8FFF2339
:10528800037140BF0368BFF35F8F00221A6081F388
:10529800108870477047C04601B40248844601BC74
:1052A800604700BF090F001001B40248844601BCE2
:1052B800604700BF1D1F001001B40248844601BCAE
:1052C800604700BFF50D001010000000000000004E
:1052D80000000100000000000000000000000200C3
:1052E80000000000000000000000030000000000B3
:1052F800000000000000FF000000000000B5486842
:1053080001318E460047704609380149884700BD7B
:10531800511C001000000000000000000000000008
:10532800503300004C330000543300005233000067
:105338004D5300004D430000533400004334000037
:105348003D2200100000000079220010000000003B
:10535800000100005923001000000000F122001095
:105368000000000000010000E44E0010C44E0010D0
:105378006C18002010000C00000000000000000065
:105388000000000000000000000000000000000015
:1053980018030020000000000000000004060020A0
:1053A8006C060020D4060020000000000000000069
:1053B80000000000000000000000000000000000E5
:1053C80000000000000000000000000000000000D5
:1053D80000000000000000000000000000000000C5
:1053E80000000000000000000000000000000000B5
:1053F80000000000000000000000000000000000A5
:105408000000000000000000000000000000000094
:105418000000000000000000000000000000000084
:105428000000000000000000000000000000000074
:105438000000000000000000000000000000000064
:1054480001000000000000000E33CDAB34126DE601
:10545800ECDE05000B00000000000000000000006A
:105468000000000000000000000000000000000034
:105478000000000000000000000000000000000024
:105488000000000000000000000000000000000014
:105498000000000000000000000000000000000004
:1057C800FFFFFFFF000002000000000000000000D3
:1057D80048070020480700205007002050070020F5
:1057E80058070020580700206007002060070020A5
:1057F8006807002068070020700700207007002055
:105808007807002078070020800700208007002004
:1058180088070020880700209007002090070020B4
:105828009807002098070020A0070020A007002064
:10583800A8070020A8070020B0070020B007002014
:10584800B8070020B8070020C0070020C0070020C4
:10585800C8070020C8070020D0070020D007002074
:10586800D8070020D8070020E0070020E007002024
:10587800E8070020E8070020F0070020F0070020D4
:10588800F8070020F8070020000800200008002082
:105898000808002008080020100800201008002030
:1058A80018080020180800202008002020080020E0
:1058B8002808002028080020300800203008002090
:1058C8003808002038080020400800204008002040
:1058D80048080020480800205008002050080020F0
:1058E80058080020580800206008002060080020A0
:1058F8006808002068080020700800207008002050
:1059080078080020780800208008002080080020FF
:1059180088080020880800209008002090080020AF
:105928009808002098080020A0080020A00800205F
:10593800A8080020A8080020B0080020B00800200F
:10594800B8080020B8080020C0080020C0080020BF
:10595800C8080020C8080020D0080020D00800206F
:10596800D8080020D8080020E0080020E00800201F
:10597800E8080020E8080020F0080020F0080020CF
:10598800F8080020F808002000090020000900207D
:10599800080900200809002010090020100900202B
:1059A80018090020180900202009002020090020DB
:1059B800280900202809002030090020300900208B
:1059C800380900203809002040090020400900203B
:1059D80048090020480900205009002050090020EB
:1059E800580900205809002060090020600900209B
:1059F800680900206809002070090020700900204B
:105A080078090020780900208009002080090020FA
:105A180088090020880900209009002090090020AA
:105A28009809002098090020A0090020A00900205A
:105A3800A8090020A8090020B0090020B00900200A
:105A4800B8090020B8090020C0090020C0090020BA
:105A5800C8090020C8090020D0090020D00900206A
:105A6800D8090020D8090020E0090020E00900201A
:105A7800E8090020E8090020F0090020F0090020CA
:105A8800F8090020F8090020000A0020000A002078
:105A9800080A0020080A0020100A0020100A002026
:105AA800180A0020180A0020200A0020200A0020D6
:105AB800280A0020280A0020300A0020300A002086
:105AC800380A0020380A0020400A0020400A002036
:105AD800480A0020480A0020500A0020500A0020E6
:105AE800580A0020580A0020600A0020600A002096
:105AF800680A0020680A0020700A0020700A002046
:105B0800780A0020780A0020800A0020800A0020F5
:105B1800880A0020880A0020900A0020900A0020A5
:105B2800980A0020980A0020A00A0020A00A002055
:105B3800A80A0020A80A0020B00A0020B00A002005
:105B4800B80A0020B80A0020C00A0020C00A0020B5
:105B5800C80A0020C80A0020D00A0020D00A002065
:105B6800D80A0020D80A0020E00A0020E00A002015
:105B7800E80A0020E80A0020F00A0020F00A0020C5
:105B8800F80A0020F80A0020000B0020000B002073
:105B9800080B0020080B0020100B0020100B002021
:105BA800180B0020180B0020200B0020200B0020D1
:105BB800280B0020280B0020300B0020300B002081
:105BC800380B0020380B0020400B0020400B002031
:105BD8000000000000000000F11F0010851D0010EB
:0C5BE800451E0010511F00103903001072
:04000005100001E9FD
:00000001FF
